{
  "contractName": "BankApp",
  "abi": [
    {
      "inputs": [
        {
          "internalType": "uint256",
          "name": "amount",
          "type": "uint256"
        }
      ],
      "name": "withdraw",
      "outputs": [],
      "stateMutability": "nonpayable",
      "type": "function"
    },
    {
      "inputs": [],
      "name": "deposit",
      "outputs": [],
      "stateMutability": "payable",
      "type": "function",
      "payable": true
    },
    {
      "inputs": [
        {
          "internalType": "address",
          "name": "account",
          "type": "address"
        }
      ],
      "name": "balanceOfAccount",
      "outputs": [
        {
          "internalType": "uint256",
          "name": "",
          "type": "uint256"
        }
      ],
      "stateMutability": "view",
      "type": "function",
      "constant": true
    }
  ],
  "bytecode": "0x608060405234801561001057600080fd5b506103e6806100206000396000f3fe6080604052600436106100345760003560e01c80632e1a7d4d14610039578063c237d39214610062578063d0e30db01461009f575b600080fd5b34801561004557600080fd5b50610060600480360381019061005b9190610237565b6100a9565b005b34801561006e57600080fd5b50610089600480360381019061008491906102c2565b61015d565b60405161009691906102fe565b60405180910390f35b6100a76101a5565b005b806100b33361015d565b10156100be57600080fd5b806000803373ffffffffffffffffffffffffffffffffffffffff1673ffffffffffffffffffffffffffffffffffffffff168152602001908152602001600020600082825461010c9190610348565b925050819055503373ffffffffffffffffffffffffffffffffffffffff166108fc829081150290604051600060405180830381858888f19350505050158015610159573d6000803e3d6000fd5b5050565b60008060008373ffffffffffffffffffffffffffffffffffffffff1673ffffffffffffffffffffffffffffffffffffffff168152602001908152602001600020549050919050565b346000803373ffffffffffffffffffffffffffffffffffffffff1673ffffffffffffffffffffffffffffffffffffffff16815260200190815260200160002060008282546101f3919061037c565b92505081905550565b600080fd5b6000819050919050565b61021481610201565b811461021f57600080fd5b50565b6000813590506102318161020b565b92915050565b60006020828403121561024d5761024c6101fc565b5b600061025b84828501610222565b91505092915050565b600073ffffffffffffffffffffffffffffffffffffffff82169050919050565b600061028f82610264565b9050919050565b61029f81610284565b81146102aa57600080fd5b50565b6000813590506102bc81610296565b92915050565b6000602082840312156102d8576102d76101fc565b5b60006102e6848285016102ad565b91505092915050565b6102f881610201565b82525050565b600060208201905061031360008301846102ef565b92915050565b7f4e487b7100000000000000000000000000000000000000000000000000000000600052601160045260246000fd5b600061035382610201565b915061035e83610201565b925082820390508181111561037657610375610319565b5b92915050565b600061038782610201565b915061039283610201565b92508282019050808211156103aa576103a9610319565b5b9291505056fea2646970667358221220e82e614f2d19475f70b34153a1636dbb0879b6eb2e743a681348b080943fb6cc64736f6c63430008110033",
  "immutableReferences": {},
  "source": "//SPDX-License-Identifier: MIT\npragma solidity ^0.8.0;\n\ncontract BankApp {\n    //  mapping between addresses and balances\n    mapping (address => uint256) private balances;\n\n\n    // withdraw money\n    function withdraw(uint amount) public {\n        // listening to the message sender, require that the balance of the sender is bigger than the amound wanted to be withdrawn\n        require(balanceOfAccount(msg.sender) >= amount);\n\n        // remove the amount withdrawn from the owners balance of ether\n        balances[msg.sender] -= amount;\n\n        // payable necessary, otherwise ether cannot be sent. transfers the amount of ether.\n        payable(msg.sender).transfer(amount);\n\n\n    }\n\n    // deposit money - payable because otherwise it would not be able to receive either in the contract\n    function deposit() payable public {\n        // take the balance of the owner and increase it by the ether sent\n        balances[msg.sender] += msg.value;\n\n    }\n\n    // get the balance of the account, simple because you pass the account as an argument\n    // view because it is read only \n    function balanceOfAccount(address account) public view returns (uint256) {\n        return balances[account];\n    }\n\n}",
  "sourcePath": "/Users/amaliesander/Documents/blockchain/ethereum/contracts/BankApp.sol",
  "compiler": {
    "name": "solc",
    "version": "0.8.17+commit.8df45f5f.Emscripten.clang"
  },
  "schemaVersion": "3.4.10",
  "updatedAt": "2022-11-03T15:17:29.045Z",
  "networkType": "ethereum",
  "devdoc": {
    "kind": "dev",
    "methods": {},
    "version": 1
  },
  "userdoc": {
    "kind": "user",
    "methods": {},
    "version": 1
  }
}